:100000000C942A000C9434000C9434000C943400AA
:100010000C9434000C9434000C9434000C94340090
:100020000C9434000C9434000C9434000C94340080
:100030000C9434000C9434000C9434000C94340070
:100040000C9434000C9434000C9434000C94340060
:100050000C94340011241FBECFE5D4E0DEBFCDBF29
:100060000E94F2010C9434020C940000AF92BF92F3
:10007000CF92DF92EF92FF920F931F937B018C013F
:1000800059016A0184E0EE0CFF1C001F111F8A95C4
:10009000D1F760E072E18AE790E0A80197010E9441
:1000A00012022150304029B930BD539A549A87E04A
:1000B000A816B104C104D10471F188E0A816B104F6
:1000C000C104D10468F485E0A816B104C104D104C8
:1000D000A1F086E0A816B104C104D104A9F514C0AA
:1000E00088E0A816B104C104D104F9F089E0A8168B
:1000F000B104C104D10441F51DC080B5806880BD44
:10010000529880B58B7F0DC080B5806880BD5298B5
:1001100080B58B7F15C080B5806880BD529880B552
:10012000846080BD80B58D7F0EC080B5806880BD45
:10013000529804C080B5806880BD529A80B58460B2
:1001400080BD80B5826080BD1F910F91FF90EF90C0
:10015000DF90CF90BF90AF9008955D9BFECF8CB99C
:10016000089520E004C05D9BFECFECB92F5FFC0139
:10017000E20FF11DE081EE23B1F75D9BFECF1CB8CD
:1001800008955F9BFECF8CB108959FBB8EBB6DBB66
:10019000E29AE19AE199FECF08959FBB8EBBE09A67
:1001A0008DB30895823051F0833018F4813079F5A1
:1001B00005C0833019F0843051F50FC0442379F025
:1001C000413029F52AB381E090E002C0880F991FE1
:1001D0006A95E2F7282B2ABB0895442361F42AB3D9
:1001E00081E090E002C0880F991F6A95E2F7809540
:1001F00082238ABB0895413051F42AB381E090E014
:1002000002C0880F991F6A95E2F7282B2ABB089530
:10021000823049F1833020F4813009F075C007C085
:10022000833009F43CC0843009F06EC053C04423CD
:1002300061F42BB381E090E002C0880F991F6A95AA
:10024000E2F7809582238BBB0895413009F05CC0B2
:100250002BB381E090E002C0880F991F6A95E2F706
:10026000282B2BBB0895442361F428B381E090E050
:1002700002C0880F991F6A95E2F78095822388BB98
:100280000895413009F040C028B381E090E002C0F9
:10029000880F991F6A95E2F7282B28BB08954423FD
:1002A00061F425B381E090E002C0880F991F6A9540
:1002B000E2F78095822385BB0895413029F525B367
:1002C00081E090E002C0880F991F6A95E2F7282B21
:1002D00025BB0895442361F422B381E090E002C07D
:1002E000880F991F6A95E2F78095822382BB089553
:1002F000413051F422B381E090E002C0880F991F91
:100300006A95E2F7282B22BB08958230A9F083304A
:1003100018F4813089F505C08330C9F0843061F567
:1003200021C02BB381E090E002C0880F991F6A952D
:10033000E2F728272BBB089528B381E090E002C0A4
:10034000880F991F6A95E2F7282728BB089525B3DF
:1003500081E090E002C0880F991F6A95E2F7282794
:1003600025BB089522B381E090E002C0880F991F59
:100370006A95E2F7282722BB0895823069F083301E
:1003800018F4813029F406C0833041F08430C1F084
:1003900080E0089529B303C026B301C023B381E0F0
:1003A00090E0062E02C0880F991F0A94E2F730E011
:1003B0008223932302C0959587956A95E2F7089565
:1003C00020B381E090E0062E02C0880F991F0A94A6
:1003D000E2F730E08223932302C0959587956A95D2
:1003E000E2F70895CF93DF9360E875E280E090E054
:1003F00028E030E040E050E00E94360088E893E1D9
:1004000029E130E0F9013197F1F70197D9F7C8E018
:10041000D0E00E94C100682FCE0170E00E94C500AC
:100420002196F7CFA1E21A2EAA1BBB1BFD010DC01E
:10043000AA1FBB1FEE1FFF1FA217B307E407F50794
:1004400020F0A21BB30BE40BF50B661F771F881F70
:10045000991F1A9469F760957095809590959B0106
:0C046000AC01BD01CF010895F894FFCF5E
:00000001FF
