:100000000C942A000C9447000C9447000C94470071
:100010000C9447000C9447000C9447000C94470044
:100020000C9447000C9447000C9447000C94470034
:100030000C9447000C9447000C9447000C94470024
:100040000C947D060C9447000C9447000C944700D8
:100050000C94470011241FBECFE5D4E0DEBFCDBF16
:1000600011E0A0E6B0E0E8EBF5E102C005900D92EA
:10007000AC3CB107D9F711E0ACECB1E001C01D9286
:10008000A03DB107E1F70E94D1090C94DA0A0C9463
:100090000000EF92FF920F931F937B018C0120E0F1
:1000A00030E040E05FE40E94190388238CF0C8012F
:1000B000B70120E030E040E05FE40E94C1010E940F
:1000C00049039B01AC01205030404040504806C0DD
:1000D000C801B7010E9449039B01AC01B901CA01E3
:1000E0001F910F91FF90EF900895A0E0B0E0EBE733
:1000F000F0E00C94A30ADC012B01FA019C919230F0
:1001000008F439C1EB018881823008F433C194309E
:1001100069F4843009F02FC111969C91119789815F
:10012000981709F428C1A4EBB0E025C1843009F484
:1001300021C18230A9F4923009F01DC19A01AD01AC
:1001400088E0EA010990AE01E90109929E0181501F
:10015000C1F7E201898111969C918923818308C1AD
:10016000923009F407C112962D903C901397EB0141
:100170008A819B811496AD90BD90CD90DC901797AD
:10018000EC80FD800E811F819101281B390BB90184
:1001900037FF04C066277727621B730B6032710537
:1001A0000CF061C0121613066CF537014801062EDB
:1001B00004C096948794779467940A94D2F721E0C8
:1001C00030E040E050E004C0220F331F441F551FB1
:1001D0006A95D2F721503040404050402E213F21B7
:1001E00040235123211531054105510521F021E01E
:1001F00030E040E050E079018A01E628F72808293C
:1002000019293CC0232BD1F1260E371E350146019A
:10021000062E04C096948794779467940A94D2F734
:1002200021E030E040E050E004C0220F331F441FC3
:10023000551F6A95D2F721503040404050402A2146
:100240003B214C215D21211531054105510521F04E
:1002500021E030E040E050E059016A01A628B728CB
:10026000C828D9280BC0821593052CF01C01AA249C
:10027000BB24650103C0EE24FF24870111969C91E5
:10028000D20111968C91981709F445C0992339F041
:10029000A80197012A193B094C095D0906C0A6016E
:1002A00095012E193F09400B510B57FD08C01182D3
:1002B0003382228224833583468357831DC081E0A5
:1002C00081833382228288279927DC01821B930B4A
:1002D000A40BB50B84839583A683B7830DC0220F2F
:1002E000331F441F551F24833583468357838281E0
:1002F000938101979383828324813581468157813D
:10030000DA01C9010197A109B1098F5F9F4FAF4F72
:10031000BF4328F30BC0918333822282EA0CFB1C7B
:100320000C1D1D1DE482F5820683178383E0808304
:10033000248135814681578157FF1AC0C901AA27F8
:1003400097FDA095BA2F81709070A070B0705695EF
:10035000479537952795822B932BA42BB52B848318
:100360009583A683B7838281938101969383828349
:10037000DF0101C0D201CD01CDB7DEB7E2E10C94BF
:10038000BF0AA0E2B0E0E7ECF1E00C94AF0A6983A9
:100390007A838B839C832D833E834F835887E9E048
:1003A000EE2EF12CEC0EFD1ECE010196B7010E943F
:1003B0003A058E010F5E1F4FCE010596B8010E94CF
:1003C0003A058A8991E089278A8BC701B801AE0175
:1003D000475E5F4F0E9475000E946504A096E6E0AC
:1003E0000C94CB0AA0E2B0E0E8EFF1E00C94AF0A85
:1003F00069837A838B839C832D833E834F835887C5
:10040000F9E0EF2EF12CEC0EFD1ECE010196B701A6
:100410000E943A058E010F5E1F4FCE010596B8016E
:100420000E943A05C701B801AE01475E5F4F0E94C6
:1004300075000E946504A096E6E00C94CB0AA0E249
:10044000B0E0E5E2F2E00C94A30A69837A838B833F
:100450009C832D833E834F835887CE010196BE0136
:10046000675F7F4F0E943A05CE010596BE016F5E21
:100470007F4F0E943A059985923088F089898230B1
:10048000C8F0943019F4823051F404C0843029F457
:10049000923081F484EB90E0C6C0923049F420E0C1
:1004A0009A858A89981321E02A87CE010996BBC0D4
:1004B000823049F420E09A858A89981321E02A8BBA
:1004C000CE014196B0C02D843E844F8458886D88FB
:1004D0007E888F88988CEE24FF248701AA24BB2471
:1004E000650140E050E060E070E0E0E0F0E0C10174
:1004F00081709070892BE9F0E60CF71C081D191D1E
:100500009A01AB012A0D3B1D4C1D5D1D80E090E062
:10051000A0E0B0E0E614F7040805190520F481E036
:1005200090E0A0E0B0E0BA01A901480F591F6A1F8E
:100530007B1FAA0CBB1CCC1CDD1C97FE08C081E0F5
:1005400090E0A0E0B0E0A82AB92ACA2ADB2A3196B6
:10055000E032F10549F0660C771C881C991C569412
:10056000479437942794C3CFFA85EA892B893C892D
:100570008B859C85280F391F2E5F3F4F17C0CA01FE
:1005800081709070892B61F016950795F794E79428
:1005900080E090E0A0E0B0E8E82AF92A0A2B1B2BC3
:1005A00076956795579547952F5F3F4F77FDE7CF36
:1005B0000CC0440F551F661F771F17FD4160EE0CDE
:1005C000FF1C001F111F21503040403090E05907A0
:1005D00090E0690790E4790760F32B8F3C8FDB0193
:1005E000CA018F779070A070B07080349105A1051A
:1005F000B10561F447FD0AC0E114F10401051105DC
:1006000029F0405C5F4F6F4F7F4F40781A8EFE1786
:1006100011F081E08A8F4D8F5E8F6F8F78A383E01A
:10062000898FCE0149960E946504A096E2E10C9460
:10063000BF0AA8E1B0E0EFE1F3E00C94AF0A6983F0
:100640007A838B839C832D833E834F83588789E0F5
:10065000E82EF12CEC0EFD1ECE010196B7010E9492
:100660003A058E010F5E1F4FCE010596B8010E941C
:100670003A058985823040F08989823028F0C701A7
:10068000B8010E94B20501C08FEF6896E6E00C94B5
:10069000CB0AACE0B0E0EFE4F3E00C94B30A69837A
:1006A0007A838B839C83CE010196BE016B5F7F4F63
:1006B0000E943A058D81823061F1823050F18430A0
:1006C00021F48E81882351F12EC02F81388537FD8A
:1006D00020C06E812F3131051CF06623F9F023C054
:1006E0008EE190E0821B930B29853A854B855C85D2
:1006F00004C056954795379527958A95D2F7662376
:10070000B1F050954095309521953F4F4F4F5F4F39
:100710000EC020E030E040E050E009C02FEF3FEF96
:100720004FEF5FE704C020E030E040E050E8B9015F
:10073000CA012C96E2E00C94CF0AA8E0B0E0E3EA0C
:10074000F3E00C94AB0A7B018C0161157105810506
:10075000910519F482E0898360C083E089838EE18A
:10076000C82ED12CDC82CB82ED82FE820F831887CB
:10077000C801B7010E941604FC013197F7FF3BC086
:10078000222733272E1B3F0B57016801022E04C07E
:10079000D694C794B794A7940A94D2F740E050E057
:1007A00060E070E081E090E0A0E0B0E004C0880F7D
:1007B000991FAA1FBB1F2A95D2F70197A109B1095A
:1007C0008E219F21A023B1230097A105B10521F01F
:1007D00041E050E060E070E04A295B296C297D2906
:1007E0004D835E836F8378878EE190E08E1B9F0B35
:1007F0009C838B8312C0309781F00E2E04C0EE0CC8
:10080000FF1C001F111F0A94D2F7ED82FE820F8396
:100810001887CE1ADF0ADC82CB821A82CE010196BB
:100820000E9465042896EAE00C94C70AEF92FF92B2
:100830000F931F937B018C0180E0E81680E0F8069F
:1008400081E0080780E0180788F48FEFE816F104CC
:100850000105110531F028F088E090E0A0E0B0E05B
:1008600017C080E090E0A0E0B0E012C080E0E816A1
:1008700080E0F80680E0080781E0180728F088E1AA
:1008800090E0A0E0B0E004C080E190E0A0E0B0E043
:1008900020E230E040E050E0281B390B4A0B5B0BB4
:1008A00004C016950795F794E7948A95D2F7F70157
:1008B000E454FF4F8081281B310941095109C901C6
:1008C0001F910F91FF90EF900895DF92EF92FF92AA
:1008D0000F931F93FC01E480F58006811781D1807E
:1008E0008081823048F480E090E0A0E1B0E0E82A26
:1008F000F92A0A2B1B2BA5C0843009F49FC0823033
:1009000021F4EE24FF24870105C0E114F104010560
:10091000110519F4E0E0F0E096C0628173819FEF69
:10092000623879070CF05BC022E83FEF261B370BDB
:100930002A3131052CF020E030E040E050E02AC0C0
:10094000B801A701022E04C0769567955795479583
:100950000A94D2F781E090E0A0E0B0E004C0880FF4
:10096000991FAA1FBB1F2A95D2F70197A109B109A8
:100970008E219F21A023B1230097A105B10521F06D
:1009800081E090E0A0E0B0E09A01AB01282B392B88
:100990004A2B5B2BDA01C9018F779070A070B07081
:1009A00080349105A105B10539F427FF09C0205C09
:1009B0003F4F4F4F5F4F04C0215C3F4F4F4F5F4F42
:1009C000E0E0F0E02030A0E03A07A0E04A07A0E431
:1009D0005A0710F0E1E0F0E079018A0127C06038A1
:1009E000710564F5FB01E158FF4FD801C7018F770E
:1009F0009070A070B07080349105A105B10539F4F4
:100A0000E7FE0DC080E490E0A0E0B0E004C08FE31A
:100A100090E0A0E0B0E0E80EF91E0A1F1B1F17FFD0
:100A200005C016950795F794E794319687E01695DB
:100A30000795F794E7948A95D1F705C0EE24FF2433
:100A40008701EFEFF0E06E2F679566276795902F8F
:100A50009F77D794DD24D7948E2F8695492F462BE8
:100A6000582F5D29B701CA011F910F91FF90EF9098
:100A7000DF900895FC01DB01408151812281622FCA
:100A80006F7770E0221F2227221F9381892F880F02
:100A9000822B282F30E0991F9927991F11969C933C
:100AA000119721153105A9F541155105610571050C
:100AB00011F482E037C082E89FEF13969C938E93E7
:100AC00012979A01AB0167E0220F331F441F551F95
:100AD0006A95D1F783E08C930DC0220F331F441F1A
:100AE000551F12968D919C911397019713969C9385
:100AF0008E931297203080E0380780E0480780E42A
:100B0000580758F314962D933D934D935C93179784
:100B100008952F3F310579F441155105610571059F
:100B200019F484E08C93089564FF03C081E08C93F2
:100B300012C01C9210C02F57304013963C932E9336
:100B4000129783E08C9387E0440F551F661F771F31
:100B50008A95D1F7706414964D935D936D937C9351
:100B6000179708951F93DC01FB019C91923008F4C4
:100B700047C08081823008F443C0943051F411960C
:100B80001C91843099F58181682F70E0611B710997
:100B90003FC0843021F0923031F48230B9F181814C
:100BA000882389F12DC011961C9111978230F1F0A4
:100BB00081811817D9F412962D913C911397828157
:100BC00093818217930794F028173907BCF0149685
:100BD0008D919D910D90BC91A02D248135814681F0
:100BE0005781281739074A075B0718F4112341F08A
:100BF0000AC082179307A407B50740F4112319F020
:100C000061E070E005C06FEF7FEF02C060E070E070
:100C1000CB011F910895623039F0633039F06130B3
:100C200039F43F983E9804C03F9801C03F9A3E9ADD
:100C30008031B1F0813138F4843071F0883071F056
:100C40008230D9F407C0803489F0803899F080323E
:100C5000A1F409C0329808C0329809C032980BC07C
:100C6000329A319805C0329A319806C0329A319A38
:100C7000309803C0329A319A309A359A339A8FB7A6
:100C800080688FBF379A08958330C1F0843028F48C
:100C9000813071F0823070F409C08530A1F0853068
:100CA00078F0863099F08730B1F412C03A9809C0D4
:100CB0003A980AC03A98399A38980DC03A9809C0BB
:100CC0003A9A3998F9CF3A9A399804C03A9AF3CFB8
:100CD0003A9A399A389A369A0895349BFECF349AC4
:100CE00024B135B1C901089524B135B1C9010895C0
:100CF0009093CD018093CC0108951F920F920FB66F
:100D00000F9211242F933F934F935F936F937F9391
:100D10008F939F93AF93BF93EF93FF93E091CC0199
:100D2000F091CD01309709F00995FF91EF91BF91B6
:100D3000AF919F918F917F916F915F914F913F9173
:100D40002F910F900FBE0F901F901895823049F190
:100D5000833020F4813009F075C007C0833009F476
:100D60003CC0843009F06EC053C0442361F42AB300
:100D700081E090E002C0880F991F6A95E2F78095A4
:100D800082238ABB0895413009F05CC02AB381E018
:100D900090E002C0880F991F6A95E2F7282B2ABBC2
:100DA0000895442361F427B381E090E002C0880FE6
:100DB000991F6A95E2F78095822387BB0895413099
:100DC00009F040C027B381E090E002C0880F991F6E
:100DD0006A95E2F7282B27BB0895442361F424B3D6
:100DE00081E090E002C0880F991F6A95E2F7809534
:100DF000822384BB0895413029F524B381E090E03B
:100E000002C0880F991F6A95E2F7282B24BB08952A
:100E1000442361F421B381E090E002C0880F991F60
:100E20006A95E2F78095822381BB0895413051F4A1
:100E300021B381E090E002C0880F991F6A95E2F724
:100E4000282B21BB0895823049F1833020F4813072
:100E500009F075C007C0833009F43CC0843009F044
:100E60006EC053C0413059F42BB381E090E002C012
:100E7000880F991F6A95E2F7282B2BBB089544230E
:100E800009F05DC02BB381E090E002C0880F991F8C
:100E90006A95E2F7809582238BBB0895413059F41F
:100EA00028B381E090E002C0880F991F6A95E2F7AD
:100EB000282B28BB0895442309F041C028B381E0C2
:100EC00090E002C0880F991F6A95E2F7809582230F
:100ED00088BB0895413059F425B381E090E002C009
:100EE000880F991F6A95E2F7282B25BB08954423A4
:100EF00031F525B381E090E002C0880F991F6A9513
:100F0000E2F78095822385BB0895413059F422B3DE
:100F100081E090E002C0880F991F6A95E2F7282BC4
:100F200022BB0895442359F422B381E090E002C02B
:100F3000880F991F6A95E2F78095822382BB0895F6
:100F40008230A9F0833018F4813089F505C08330F0
:100F5000C9F0843061F521C02BB381E090E002C07C
:100F6000880F991F6A95E2F728272BBB089528B3AD
:100F700081E090E002C0880F991F6A95E2F7282768
:100F800028BB089525B381E090E002C0880F991F27
:100F90006A95E2F7282725BB089522B381E090E007
:100FA00002C0880F991F6A95E2F7282722BB08958F
:100FB000823061F0833018F4813069F505C08330E8
:100FC00039F0843041F516C029B303C026B301C0FF
:100FD00023B381E090E0062E02C0880F991F0A9487
:100FE000E2F730E08223932302C0959587956A95B6
:100FF000E2F7089520B381E090E0062E02C0880F4A
:10100000991F0A94E2F730E08223932302C095955A
:1010100087956A95E2F70895823061F0833018F47D
:10102000813069F405C0833039F0843041F406C062
:101030006ABB089567BB089564BB089561BB0895BA
:10104000823061F0833018F4813069F405C0833058
:1010500039F0843041F406C06BBB089568BB089535
:1010600065BB089562BB0895823071F0833018F437
:101070008130A9F405C0833059F0843081F40CC06C
:101080008BB380958BBB089588B3809588BB0895FA
:1010900085B3809585BB089582B3809582BB089502
:1010A000823069F0833018F4813029F406C083302F
:1010B00041F0843041F080E0089589B3089586B30B
:1010C000089583B3089580B308959FBB8EBB6DBB15
:1010D000E29AE19AE199FECF08959FBB8EBBE09A18
:1010E0008DB30895CF92DF92EF92FF920F931F93EB
:1010F000CF93DF93E82EDD24DA9400E010E0C02ED9
:101100008E2D602F40E00E942307E801CC0FDD1FE9
:10111000CC0FDD1FC454DE4F84E0F82E8E2D6F2DD2
:101120000E94D807882339F4D8808E2D6F2D0E9415
:10113000D8078823D1F3F394219688E0F81671F745
:101140008E2D6C2D41E00E9423070F5F1F4F04304E
:101150001105A9F68D2DDF91CF911F910F91FF9071
:10116000EF90DF90CF9008951F93182F6FE00E94AB
:101170000C08812F6FEF0E9420081F9108950F9394
:101180001F93182F82E061E040E00E94230782E075
:1011900060E041E00E94230784E0612F0E94200864
:1011A00082E062E041E00E9423070AEF10E0C801FC
:1011B0000197F1F782E062E040E00E942307C80156
:1011C0000197F1F71F910F9108951F93CF93DF932C
:1011D000EC0110E003C00E94BF081F5FFE01E10F99
:1011E000F11D80818823B9F7DF91CF911F91089578
:1011F0000F931F93182F82E061E040E00E942307C5
:1012000082E060E040E00E94230784E0612F0E94BA
:10121000200882E062E041E00E9423070AEF10E02C
:10122000C8010197F1F782E062E040E00E942307E5
:10123000C8010197F1F71F910F910895882329F0B4
:10124000813011F060E001C0605C862F80580E9400
:10125000F808089581E00E94F80808950F931F93FD
:1012600084ED90E30197F1F784E06FEF0E940C08A2
:1012700082E060E041E00E94A60682E061E041E099
:101280000E94A60682E062E041E00E94A60688E392
:101290000E94F8080AEF10E0C8010197F1F78DE00D
:1012A0000E94F808C8010197F1F781E00E94F80850
:1012B000C8010197F1F786E00E94F8081F910F918D
:1012C00008950E94A007089540E00E942307089512
:1012D00041E00E942307089541E00E94A606089578
:1012E000EF92FF920F931F93CF93DF930E942E09EB
:1012F00080E690E00E94E50880E463E00E940B062F
:101300008CEB99E00E947806C0E5D3EC81E00E9466
:1013100044060091CE011091CF01C8016AE070E04F
:101320000E948F0AF62EE72E862F972F6AE070E034
:101330000E948F0ACB016AE070E00E948F0A7093CE
:10134000CF016093CE0180E06BE00E941E098F2DDB
:101350009E2D6AE070E00E948F0A805D0E94BF08A7
:10136000C8016AE070E00E948F0A805D0E94BF0899
:10137000CE010197F1F7CACF0E947406A0E0B0E059
:10138000BC01CD010E949D0320E030E040E85EE317
:101390000E941F020E9449007093CF016093CE010A
:1013A0000895CF92DF92EF92FF920F931F93DF93F6
:1013B000CF9300D000D000D0CDB7DEB783E00E943D
:1013C000B4080E942E098CE690E00E94E5086E01A8
:1013D0000894C11CD11C99E1E92EF12C83E00E94F4
:1013E0007208813309F061C00E942A098DE790E0FC
:1013F0000E94E50810E083E00E947208082F8053E5
:101400008A30C8F78AE20E94BF08E12FF0E0EE0FB1
:10141000FF1FEC0DFD1D008311821F5F133058F379
:1014200080E29EE4F7013197F1F70197D9F780E761
:1014300090E00E946D0890E029813A81821793071D
:1014400031F581E790E00E946D0890E02B813C81AE
:1014500082179307E1F482E790E00E946D0890E024
:101460002D813E818217930791F40E942A098AE810
:1014700090E00E94E50880E593ECF7013197F1F7E1
:101480000197D9F70E94BC090E94700941C00E94CF
:101490002A0988E990E00E94E50880E593ECF701CD
:1014A0003197F1F70197D9F733C0823309F096CF1E
:1014B0000E942A098DE790E00E94E50810E083E091
:1014C0000E947208082F80538A30C8F78AE20E946F
:1014D000BF08812F90E080599F4F602F70E00E94DD
:1014E00065081F5F133058F380E29EE4F7013197DF
:1014F000F1F70197D9F70E942A0984EA90E00E9447
:10150000E50880E593ECF7013197F1F70197D9F7FA
:101510000E942A098CE690E00E94E5085FCFAA1B92
:10152000BB1B51E107C0AA1FBB1FA617B70710F0CE
:10153000A61BB70B881F991F5A95A9F78095909500
:10154000BC01CD0108952F923F924F925F926F920E
:101550007F928F929F92AF92BF92CF92DF92EF9243
:10156000FF920F931F93CF93DF93CDB7DEB7CA1BC4
:10157000DB0B0FB6F894DEBF0FBECDBF09942A88EF
:10158000398848885F846E847D848C849B84AA8497
:10159000B984C884DF80EE80FD800C811B81AA8124
:1015A000B981CE0FD11D0FB6F894DEBF0FBECDBFEF
:0815B000ED010895F894FFCF4E
:1015B80020526F6F6D2054656D703A0020315F4C7A
:1015C8006F67696E2F325F4E65773A200020456E4F
:1015D80074657220506173733A0020436F727265AC
:1015E80063742050617373002057726F6E672050C8
:1015F800617373002050617373776F726420536155
:10160800766564000000000000000000000102028E
:101618000303030304040404040404040505050582
:10162800050505050505050505050505060606065E
:101638000606060606060606060606060606060642
:10164800060606060606060606060606070707072E
:101658000707070707070707070707070707070712
:101668000707070707070707070707070707070702
:1016780007070707070707070707070707070707F2
:1016880007070707070707070707070708080808DE
:1016980008080808080808080808080808080808C2
:1016A80008080808080808080808080808080808B2
:1016B80008080808080808080808080808080808A2
:1016C8000808080808080808080808080808080892
:1016D8000808080808080808080808080808080882
:1016E8000808080808080808080808080808080872
:1016F8000808080808080808080808080808080862
:101708000808080808080808080808083738392F9A
:0C1718003435362A3132332D4E303D2B53
:00000001FF
