:100000000C942A000C943F000C943F000C943F0089
:100010000C943F000C943F000C943F000C943F0064
:100020000C943F000C943F000C943F000C943F0054
:100030000C943F000C943F000C943F000C943F0044
:100040000C943F000C943F000C943F000C943F0034
:100050000C943F0011241FBECFE5D4E0DEBFCDBF1E
:1000600010E0A0E6B0E0EAEEFFE102C005900D92DC
:10007000A23AB107D9F70E94040F0C94F30F0C9425
:100080000000EF92FF920F931F937B018C0120E001
:1000900030E040E05FE40E94410388238CF0C80117
:1000A000B70120E030E040E05FE40E94B9010E9427
:1000B000A1039B01AC01205030404040504806C095
:1000C000C801B7010E94A1039B01AC01B901CA019B
:1000D0001F910F91FF90EF900895A0E0B0E0E3E74B
:1000E000F0E00C94BC0FDC012B01FA019C919230E2
:1000F00008F439C1EB018881823008F433C19430AF
:1001000069F4843009F02FC111969C91119789816F
:10011000981709F428C1A9E8B0E025C1843009F492
:1001200021C18230A9F4923009F01DC19A01AD01BC
:1001300088E0EA010990AE01E90109929E0181502F
:10014000C1F7E201898111969C918923818308C1BD
:10015000923009F407C112962D903C901397EB0151
:100160008A819B811496AD90BD90CD90DC901797BD
:10017000EC80FD800E811F819101281B390BB90194
:1001800037FF04C066277727621B730B6032710547
:100190000CF061C0121613066CF537014801062EEB
:1001A00004C096948794779467940A94D2F721E0D8
:1001B00030E040E050E004C0220F331F441F551FC1
:1001C0006A95D2F721503040404050402E213F21C7
:1001D00040235123211531054105510521F021E02E
:1001E00030E040E050E079018A01E628F72808294C
:1001F00019293CC0232BD1F1260E371E35014601AB
:10020000062E04C096948794779467940A94D2F744
:1002100021E030E040E050E004C0220F331F441FD3
:10022000551F6A95D2F721503040404050402A2156
:100230003B214C215D21211531054105510521F05E
:1002400021E030E040E050E059016A01A628B728DB
:10025000C828D9280BC0821593052CF01C01AA24AC
:10026000BB24650103C0EE24FF24870111969C91F5
:10027000D20111968C91981709F445C0992339F051
:10028000A80197012A193B094C095D0906C0A6017E
:1002900095012E193F09400B510B57FD08C01182E3
:1002A0003382228224833583468357831DC081E0B5
:1002B00081833382228288279927DC01821B930B5A
:1002C000A40BB50B84839583A683B7830DC0220F3F
:1002D000331F441F551F24833583468357838281F0
:1002E000938101979383828324813581468157814D
:1002F000DA01C9010197A109B1098F5F9F4FAF4F83
:10030000BF4328F30BC0918333822282EA0CFB1C8B
:100310000C1D1D1DE482F5820683178383E0808314
:10032000248135814681578157FF1AC0C901AA2708
:1003300097FDA095BA2F81709070A070B0705695FF
:10034000479537952795822B932BA42BB52B848328
:100350009583A683B7838281938101969383828359
:10036000DF0101C0D201CD01CDB7DEB7E2E10C94CF
:10037000D80FA0E2B0E0EFEBF1E00C94C80F698376
:100380007A838B839C832D833E834F835887E9E058
:10039000EE2EF12CEC0EFD1ECE010196B7010E944F
:1003A000CA048E010F5E1F4FCE010596B8010E9450
:1003B000CA048A8991E089278A8BC701B801AE01F6
:1003C000475E5F4F0E946D000E94F503A096E6E035
:1003D0000C94E40FA0E2B0E0E0EFF1E00C94C80F61
:1003E00069837A838B839C832D833E834F835887D5
:1003F000F9E0EF2EF12CEC0EFD1ECE010196B701B7
:100400000E94CA048E010F5E1F4FCE010596B801EF
:100410000E94CA04C701B801AE01475E5F4F0E9447
:100420006D000E94F503A096E6E00C94E40FA0E2B4
:10043000B0E0EDE1F2E00C94BC0F69837A838B832A
:100440009C832D833E834F835887CE010196BE0146
:10045000675F7F4F0E94CA04CE010596BE016F5EA2
:100460007F4F0E94CA049985923088F08989823032
:10047000C8F0943019F4823051F404C0843029F467
:10048000923081F489E890E0C6C0923049F420E0CF
:100490009A858A89981321E02A87CE010996BBC0E4
:1004A000823049F420E09A858A89981321E02A8BCA
:1004B000CE014196B0C02D843E844F8458886D880B
:1004C0007E888F88988CEE24FF248701AA24BB2481
:1004D000650140E050E060E070E0E0E0F0E0C10184
:1004E00081709070892BE9F0E60CF71C081D191D2E
:1004F0009A01AB012A0D3B1D4C1D5D1D80E090E073
:10050000A0E0B0E0E614F7040805190520F481E046
:1005100090E0A0E0B0E0BA01A901480F591F6A1F9E
:100520007B1FAA0CBB1CCC1CDD1C97FE08C081E005
:1005300090E0A0E0B0E0A82AB92ACA2ADB2A3196C6
:10054000E032F10549F0660C771C881C991C569422
:10055000479437942794C3CFFA85EA892B893C893D
:100560008B859C85280F391F2E5F3F4F17C0CA010E
:1005700081709070892B61F016950795F794E79438
:1005800080E090E0A0E0B0E8E82AF92A0A2B1B2BD3
:1005900076956795579547952F5F3F4F77FDE7CF46
:1005A0000CC0440F551F661F771F17FD4160EE0CEE
:1005B000FF1C001F111F21503040403090E05907B0
:1005C00090E0690790E4790760F32B8F3C8FDB01A3
:1005D000CA018F779070A070B07080349105A1052A
:1005E000B10561F447FD0AC0E114F10401051105EC
:1005F00029F0405C5F4F6F4F7F4F40781A8EFE1797
:1006000011F081E08A8F4D8F5E8F6F8F78A383E02A
:10061000898FCE0149960E94F503A096E2E10C94E1
:10062000D80FA8E1B0E0E7E1F3E00C94C80F6983CC
:100630007A838B839C832D833E834F83588789E005
:10064000E82EF12CEC0EFD1ECE010196B7010E94A2
:10065000CA048E010F5E1F4FCE010596B8010E949D
:10066000CA048985823040F08989823028F0C70128
:10067000B8010E94420501C08FEF6896E6E00C9435
:10068000E40FA8E1B0E0E7E4F3E00C94C80F69835D
:100690007A838B839C832D833E834F83588789E0A5
:1006A000E82EF12CEC0EFD1ECE010196B7010E9442
:1006B000CA048E010F5E1F4FCE010596B8010E943D
:1006C000CA048985823040F08989823028F0C701C8
:1006D000B8010E94420501C08FEF6896E6E00C94D5
:1006E000E40FA8E1B0E0E7E7F3E00C94C80F6983FA
:1006F0007A838B839C832D833E834F83588789E045
:10070000E82EF12CEC0EFD1ECE010196B7010E94E1
:10071000CA048E010F5E1F4FCE010596B8010E94DC
:10072000CA048985823040F08989823028F0C70167
:10073000B8010E94420501C081E06896E6E00C9491
:10074000E40FACE0B0E0E7EAF3E00C94CC0F69838F
:100750007A838B839C83CE010196BE016B5F7F4FB2
:100760000E94CA048D81823061F1823050F1843060
:1007700021F48E81882351F12EC02F81388537FDD9
:1007800020C06E812F3131051CF06623F9F023C0A3
:100790008EE190E0821B930B29853A854B855C8521
:1007A00004C056954795379527958A95D2F76623C5
:1007B000B1F050954095309521953F4F4F4F5F4F89
:1007C0000EC020E030E040E050E009C02FEF3FEFE6
:1007D0004FEF5FE704C020E030E040E050E8B901AF
:1007E000CA012C96E2E00C94E80FDF92EF92FF92A0
:1007F0000F931F93FC01E480F58006811781D1805F
:100800008081823048F480E090E0A0E1B0E0E82A06
:10081000F92A0A2B1B2BA5C0843009F49FC0823013
:1008200021F4EE24FF24870105C0E114F104010541
:10083000110519F4E0E0F0E096C0628173819FEF4A
:10084000623879070CF05BC022E83FEF261B370BBC
:100850002A3131052CF020E030E040E050E02AC0A1
:10086000B801A701022E04C0769567955795479564
:100870000A94D2F781E090E0A0E0B0E004C0880FD5
:10088000991FAA1FBB1F2A95D2F70197A109B10989
:100890008E219F21A023B1230097A105B10521F04E
:1008A00081E090E0A0E0B0E09A01AB01282B392B69
:1008B0004A2B5B2BDA01C9018F779070A070B07062
:1008C00080349105A105B10539F427FF09C0205CEA
:1008D0003F4F4F4F5F4F04C0215C3F4F4F4F5F4F23
:1008E000E0E0F0E02030A0E03A07A0E04A07A0E412
:1008F0005A0710F0E1E0F0E079018A0127C0603882
:10090000710564F5FB01E158FF4FD801C7018F77EE
:100910009070A070B07080349105A105B10539F4D4
:10092000E7FE0DC080E490E0A0E0B0E004C08FE3FB
:1009300090E0A0E0B0E0E80EF91E0A1F1B1F17FFB1
:1009400005C016950795F794E794319687E01695BC
:100950000795F794E7948A95D1F705C0EE24FF2414
:100960008701EFEFF0E06E2F679566276795902F70
:100970009F77D794DD24D7948E2F8695492F462BC9
:10098000582F5D29B701CA011F910F91FF90EF9079
:10099000DF900895FC01DB01408151812281622FAB
:1009A0006F7770E0221F2227221F9381892F880FE3
:1009B000822B282F30E0991F9927991F11969C931D
:1009C000119721153105A9F54115510561057105ED
:1009D00011F482E037C082E89FEF13969C938E93C8
:1009E00012979A01AB0167E0220F331F441F551F76
:1009F0006A95D1F783E08C930DC0220F331F441FFB
:100A0000551F12968D919C911397019713969C9365
:100A10008E931297203080E0380780E0480780E40A
:100A2000580758F314962D933D934D935C93179765
:100A300008952F3F310579F4411551056105710580
:100A400019F484E08C93089564FF03C081E08C93D3
:100A500012C01C9210C02F57304013963C932E9317
:100A6000129783E08C9387E0440F551F661F771F12
:100A70008A95D1F7706414964D935D936D937C9332
:100A8000179708951F93DC01FB019C91923008F4A5
:100A900047C08081823008F443C0943051F41196ED
:100AA0001C91843099F58181682F70E0611B710978
:100AB0003FC0843021F0923031F48230B9F181812D
:100AC000882389F12DC011961C9111978230F1F085
:100AD00081811817D9F412962D913C911397828138
:100AE00093818217930794F028173907BCF0149666
:100AF0008D919D910D90BC91A02D248135814681D1
:100B00005781281739074A075B0718F4112341F06A
:100B10000AC082179307A407B50740F4112319F000
:100B200061E070E005C06FEF7FEF02C060E070E051
:100B3000CB011F910895DF93CF9300D000D00F9287
:100B4000CDB7DEB789836A834B838981282F30E054
:100B50003D832C838C819D818230910509F448C0AE
:100B60002C813D812330310534F48C819D8181308D
:100B7000910571F0CBC02C813D812330310509F402
:100B800067C08C819D818430910509F491C0BEC0FD
:100B90008B818823A9F4AAE3B0E0EAE3F0E0808146
:100BA000482F8A81282F30E081E090E0022E02C099
:100BB000880F991F0A94E2F7809584238C93A6C02E
:100BC0008B81813009F0A2C0AAE3B0E0EAE3F0E053
:100BD0008081482F8A81282F30E081E090E0022E2A
:100BE00002C0880F991F0A94E2F7842B8C938EC061
:100BF0008B818823A9F4A7E3B0E0E7E3F0E08081EC
:100C0000482F8A81282F30E081E090E0022E02C038
:100C1000880F991F0A94E2F7809584238C9376C0FD
:100C20008B81813009F072C0A7E3B0E0E7E3F0E028
:100C30008081482F8A81282F30E081E090E0022EC9
:100C400002C0880F991F0A94E2F7842B8C935EC030
:100C50008B818823A9F4A4E3B0E0E4E3F0E0808191
:100C6000482F8A81282F30E081E090E0022E02C0D8
:100C7000880F991F0A94E2F7809584238C9346C0CD
:100C80008B81813009F042C0A4E3B0E0E4E3F0E0FE
:100C90008081482F8A81282F30E081E090E0022E69
:100CA00002C0880F991F0A94E2F7842B8C932EC000
:100CB0008B818823A9F4A1E3B0E0E1E3F0E0808137
:100CC000482F8A81282F30E081E090E0022E02C078
:100CD000880F991F0A94E2F7809584238C9316C09D
:100CE0008B81813099F4A1E3B0E0E1E3F0E0808111
:100CF000482F8A81282F30E081E090E0022E02C048
:100D0000880F991F0A94E2F7842B8C930F900F9011
:100D10000F900F900F90CF91DF910895DF93CF93B5
:100D200000D000D00F92CDB7DEB789836A834B83A2
:100D30008981282F30E03D832C838C819D818230F6
:100D4000910509F448C02C813D812330310534F4EC
:100D50008C819D818130910571F0CBC02C813D81CA
:100D60002330310509F467C08C819D818430910561
:100D700009F491C0BEC08B818130A1F4ABE3B0E037
:100D8000EBE3F0E08081482F8A81282F30E081E07A
:100D900090E0022E02C0880F991F0A94E2F7842B7C
:100DA0008C93A7C08B81882309F0A3C0ABE3B0E08C
:100DB000EBE3F0E08081482F8A81282F30E081E04A
:100DC00090E0022E02C0880F991F0A94E2F78095E6
:100DD00084238C938EC08B818130A1F4A8E3B0E092
:100DE000E8E3F0E08081482F8A81282F30E081E01D
:100DF00090E0022E02C0880F991F0A94E2F7842B1C
:100E00008C9377C08B81882309F073C0A8E3B0E08E
:100E1000E8E3F0E08081482F8A81282F30E081E0EC
:100E200090E0022E02C0880F991F0A94E2F7809585
:100E300084238C935EC08B818130A1F4A5E3B0E064
:100E4000E5E3F0E08081482F8A81282F30E081E0BF
:100E500090E0022E02C0880F991F0A94E2F7842BBB
:100E60008C9347C08B81882309F043C0A5E3B0E091
:100E7000E5E3F0E08081482F8A81282F30E081E08F
:100E800090E0022E02C0880F991F0A94E2F7809525
:100E900084238C932EC08B818130A1F4A2E3B0E037
:100EA000E2E3F0E08081482F8A81282F30E081E062
:100EB00090E0022E02C0880F991F0A94E2F7842B5B
:100EC0008C9317C08B818823A1F4A2E3B0E0E2E306
:100ED000F0E08081482F8A81282F30E081E090E087
:100EE000022E02C0880F991F0A94E2F7809584238E
:100EF0008C930F900F900F900F900F90CF91DF91E8
:100F00000895DF93CF9300D000D0CDB7DEB78983AB
:100F10006A838981282F30E03C832B838B819C81DD
:100F20008230910551F12B813C812330310534F41D
:100F30008B819C818130910561F05AC02B813C816D
:100F40002330310571F18B819C8184309105E9F169
:100F50004FC0ABE3B0E0EBE3F0E08081482F8A8143
:100F6000282F30E081E090E0022E02C0880F991F08
:100F70000A94E2F784278C933BC0A8E3B0E0E8E34F
:100F8000F0E08081482F8A81282F30E081E090E0D6
:100F9000022E02C0880F991F0A94E2F784278C93CF
:100FA00027C0A5E3B0E0E5E3F0E08081482F8A8127
:100FB000282F30E081E090E0022E02C0880F991FB8
:100FC0000A94E2F784278C9313C0A2E3B0E0E2E333
:100FD000F0E08081482F8A81282F30E081E090E086
:100FE000022E02C0880F991F0A94E2F784278C937F
:100FF0000F900F900F900F90CF91DF910895DF9396
:10100000CF9300D000D00F92CDB7DEB78A836B8329
:101010008A81282F30E03D832C834C815D814230D2
:101020005105B1F18C819D818330910534F42C817F
:101030003D812130310571F084C04C815D814330A8
:10104000510509F443C08C819D818430910509F4D8
:101050005BC077C0E9E3F0E08081482F50E08B81EE
:10106000282F30E081E090E002C0880F991F2A9578
:10107000E2F79A01282339238B81882F90E0A90178
:1010800002C0559547958A95E2F7CA01898359C0F0
:10109000E6E3F0E08081482F50E08B81282F30E09C
:1010A00081E090E002C0880F991F2A95E2F79A012B
:1010B000282339238B81882F90E0A90102C0559500
:1010C00047958A95E2F7CA0189833BC0E3E3F0E0E4
:1010D0008081482F50E08B81282F30E081E090E024
:1010E00002C0880F991F2A95E2F79A012823392315
:1010F0008B81882F90E0A90102C0559547958A956C
:10110000E2F7CA0189831DC0E0E3F0E08081482F47
:1011100050E08B81282F30E081E090E002C0880F02
:10112000991F2A95E2F79A01282339238B81882F6A
:1011300090E0A90102C0559547958A95E2F7CA014A
:10114000898389810F900F900F900F900F90CF910E
:10115000DF910895DF93CF9300D000D0CDB7DEB7F5
:1011600089836A838981282F30E03C832B838B819C
:101170009C8182309105D9F02B813C81233031054F
:1011800034F48B819C818130910561F01EC02B81EC
:101190003C812330310581F08B819C818430910525
:1011A00081F013C0EAE3F0E08A8180830EC0E7E3B8
:1011B000F0E08A81808309C0E4E3F0E08A818083E3
:1011C00004C0E1E3F0E08A8180830F900F900F90DC
:1011D0000F90CF91DF910895DF93CF9300D000D08F
:1011E000CDB7DEB789836A838981282F30E03C83BD
:1011F0002B838B819C8182309105D9F02B813C819E
:101200002330310534F48B819C818130910561F06C
:101210001EC02B813C812330310581F08B819C8164
:101220008430910581F013C0EBE3F0E08A81808384
:101230000EC0E8E3F0E08A81808309C0E5E3F0E0D6
:101240008A81808304C0E2E3F0E08A8180830F908A
:101250000F900F900F90CF91DF910895DF93CF9370
:1012600000D00F92CDB7DEB789838981282F30E077
:101270003B832A838A819B8182309105F1F02A8108
:101280003B812330310534F48A819B818130910583
:1012900061F02AC02A813B8123303105B1F08A8177
:1012A0009B8184309105C9F01FC0ABE3B0E0EBE354
:1012B000F0E0808180958C9317C0A8E3B0E0E8E36C
:1012C000F0E0808180958C930FC0A5E3B0E0E5E36A
:1012D000F0E0808180958C9307C0A2E3B0E0E2E368
:1012E000F0E0808180958C930F900F900F90CF91BC
:1012F000DF910895DF93CF9300D000D0CDB7DEB754
:101300008A8319828A81282F30E03C832B838B814A
:101310009C8182309105D9F02B813C8123303105AD
:1013200034F48B819C818130910561F01EC02B814A
:101330003C812330310581F08B819C818430910583
:1013400081F013C0E9E3F0E0808189830EC0E6E319
:10135000F0E08081898309C0E3E3F0E08081898344
:1013600004C0E0E3F0E08081898389810F900F90D1
:101370000F900F90CF91DF910895DF93CF9300D01E
:1013800000D0CDB7DEB79A8389837C836B83EEE38D
:10139000F0E089819A8191838083EDE3F0E08B8195
:1013A0008083ACE3B0E0ECE3F0E0808184608C9378
:1013B000ACE3B0E0ECE3F0E0808182608C93ECE39E
:1013C000F0E08081882F90E08270907095958795ED
:1013D00081309105A1F30F900F900F900F90CF9156
:1013E000DF910895DF93CF9300D0CDB7DEB79A8316
:1013F0008983EEE3F0E089819A8191838083ACE375
:10140000B0E0ECE3F0E0808181608C93EDE3F0E00C
:1014100080810F900F90CF91DF910895DF93CF934C
:101420000F92CDB7DEB7898389816FE00E94AA0849
:1014300089816FEF0E94EC080F90CF91DF910895A2
:10144000DF93CF9300D000D00F92CDB7DEB78D835E
:101450008FEF8A8319821C823BC08D816C8140E0B2
:101460000E948E061B8229C08B81982F9C5F8D81E4
:10147000692F0E94FF07898389818823D9F48C8191
:10148000482F50E08B81282F30E0CA01880F991F28
:10149000880F991F820F931FFC01EF56FF4F808129
:1014A0008A838B81982F9C5F8D81692F0E94FF0713
:1014B0008823B9F38B818F5F8B838B818430A0F27B
:1014C0008D816C8141E00E948E068C818F5F8C83C0
:1014D0008C81843010F28A810F900F900F900F90C2
:1014E0000F90CF91DF910895DF93CF93CDB7DEB703
:1014F000E8970FB6F894DEBF0FBECDBF80E090E056
:10150000A8E4B2E48DAB9EABAFABB8AF6DA97EA93A
:101510008FA998AD20E030E04AE753E40E9417021B
:10152000DC01CB0189AB9AABABABBCAB69A97AA9A7
:101530008BA99CA920E030E040E85FE30E947103A2
:1015400088232CF481E090E098AB8FA73FC069A975
:101550007AA98BA99CA920E03FEF4FE757E40E94AE
:10156000110318164CF56DA97EA98FA998AD20E03E
:1015700030E040E251E40E941702DC01CB01BC01E3
:10158000CD010E944100DC01CB0198AB8FA70FC0B9
:1015900089E190E09EA78DA78DA59EA50197F1F703
:1015A0009EA78DA78FA598A9019798AB8FA78FA508
:1015B00098A9009769F714C069A97AA98BA99CA971
:1015C0000E944100DC01CB0198AB8FA78FA598A9A1
:1015D0009CA78BA78BA59CA50197F1F79CA78BA730
:1015E00081E06FEF0E94AA0882E060E041E00E9483
:1015F0009B0582E061E041E00E949B0582E062E0A1
:1016000041E00E949B0588E30E946E0C80E090E020
:10161000A0E8BFE38FA398A7A9A7BAA76FA178A551
:1016200089A59AA520E030E04AE753E40E9417021A
:10163000DC01CB018BA39CA3ADA3BEA36BA17CA1BA
:101640008DA19EA120E030E040E85FE30E9471039D
:1016500088232CF481E090E09AA389A33FC06BA17A
:101660007CA18DA19EA120E03FEF4FE757E40E94AF
:10167000110318164CF56FA178A589A59AA520E04D
:1016800030E040E251E40E941702DC01CB01BC01D2
:10169000CD010E944100DC01CB019AA389A30FC0B8
:1016A00089E190E098A38F8F8F8D98A10197F1F732
:1016B00098A38F8F89A19AA101979AA389A389A141
:1016C0009AA1009769F714C06BA17CA18DA19EA17E
:1016D0000E944100DC01CB019AA389A389A19AA1B0
:1016E0009E8F8D8F8D8D9E8D0197F1F79E8F8D8FA3
:1016F0008DE00E946E0C80E090E0A0E8BFE3898F4F
:101700009A8FAB8FBC8F698D7A8D8B8D9C8D20E0ED
:1017100030E04AE753E40E941702DC01CB018D8BD5
:101720009E8BAF8BB88F6D897E898F89988D20E0D5
:1017300030E040E85FE30E94710388232CF481E0ED
:1017400090E09C8B8B8B3FC06D897E898F89988DB3
:1017500020E03FEF4FE757E40E94110318164CF5C5
:10176000698D7A8D8B8D9C8D20E030E040E251E4D4
:101770000E941702DC01CB01BC01CD010E94410097
:10178000DC01CB019C8B8B8B0FC089E190E09A8BA5
:10179000898B89899A890197F1F79A8B898B8B8933
:1017A0009C8901979C8B8B8B8B899C89009769F70F
:1017B00014C06D897E898F89988D0E944100DC015B
:1017C000CB019C8B8B8B8B899C89988B8F878F858A
:1017D00098890197F1F7988B8F8781E00E946E0CB2
:1017E00080E090E0A0E8BFE38B879C87AD87BE8751
:1017F0006B857C858D859E8520E030E04AE753E44B
:101800000E941702DC01CB018F839887A987BA87D2
:101810006F81788589859A8520E030E040E85FE334
:101820000E94710388232CF481E090E09E838D83D5
:101830003FC06F81788589859A8520E03FEF4FE72B
:1018400057E40E94110318164CF56B857C858D8535
:101850009E8520E030E040E251E40E941702DC0166
:10186000CB01BC01CD010E944100DC01CB019E8374
:101870008D830FC089E190E09C838B838B819C8159
:101880000197F1F79C838B838D819E8101979E83C5
:101890008D838D819E81009769F714C06F81788553
:1018A00089859A850E944100DC01CB019E838D834E
:1018B0008D819E819A83898389819A810197F1F72D
:1018C0009A83898386E00E946E0CE8960FB6F8949E
:1018D000DEBF0FBECDBFCF91DF910895DF93CF93D1
:1018E000CDB7DEB76D970FB6F894DEBF0FBECDBF94
:1018F0008D8F82E061E040E00E948E0682E060E031
:1019000040E00E948E0681E06D8D0E94EC0882E02E
:1019100062E041E00E948E0680E090E0A0E8BFE334
:10192000898F9A8FAB8FBC8F698D7A8D8B8D9C8DB3
:1019300020E030E04AE753E40E941702DC01CB01CB
:101940008D8B9E8BAF8BB88F6D897E898F89988D9B
:1019500020E030E040E85FE30E94710388232CF42C
:1019600081E090E09C8B8B8B3FC06D897E898F8955
:10197000988D20E03FEF4FE757E40E9411031816BF
:101980004CF5698D7A8D8B8D9C8D20E030E040E2A6
:1019900051E40E941702DC01CB01BC01CD010E9481
:1019A0004100DC01CB019C8B8B8B0FC089E190E067
:1019B0009A8B898B89899A890197F1F79A8B898B00
:1019C0008B899C8901979C8B8B8B8B899C89009739
:1019D00069F714C06D897E898F89988D0E944100B6
:1019E000DC01CB019C8B8B8B8B899C89988B8F879F
:1019F0008F8598890197F1F7988B8F8782E062E055
:101A000040E00E948E0680E090E0A0E8BFE38B8774
:101A10009C87AD87BE876B857C858D859E8520E004
:101A200030E04AE753E40E941702DC01CB018F83C8
:101A30009887A987BA876F81788589859A8520E0FC
:101A400030E040E85FE30E94710388232CF481E0DA
:101A500090E09E838D833FC06F81788589859A85CC
:101A600020E03FEF4FE757E40E94110318164CF5B2
:101A70006B857C858D859E8520E030E040E251E4D9
:101A80000E941702DC01CB01BC01CD010E94410084
:101A9000DC01CB019E838D830FC089E190E09C83A4
:101AA0008B838B819C810197F1F79C838B838D8144
:101AB0009E8101979E838D838D819E81009769F71A
:101AC00014C06F81788589859A850E944100DC0168
:101AD000CB019E838D838D819E819A8389838981A9
:101AE0009A810197F1F79A8389836D960FB6F894DE
:101AF000DEBF0FBECDBFCF91DF910895DF93CF93AF
:101B0000CDB7DEB76D970FB6F894DEBF0FBECDBF71
:101B10008D8F82E061E040E00E948E0682E060E00E
:101B200041E00E948E0681E06D8D0E94EC0882E00B
:101B300062E041E00E948E0680E090E0A0E8BFE312
:101B4000898F9A8FAB8FBC8F698D7A8D8B8D9C8D91
:101B500020E030E04AE753E40E941702DC01CB01A9
:101B60008D8B9E8BAF8BB88F6D897E898F89988D79
:101B700020E030E040E85FE30E94710388232CF40A
:101B800081E090E09C8B8B8B3FC06D897E898F8933
:101B9000988D20E03FEF4FE757E40E94110318169D
:101BA0004CF5698D7A8D8B8D9C8D20E030E040E284
:101BB00051E40E941702DC01CB01BC01CD010E945F
:101BC0004100DC01CB019C8B8B8B0FC089E190E045
:101BD0009A8B898B89899A890197F1F79A8B898BDE
:101BE0008B899C8901979C8B8B8B8B899C89009717
:101BF00069F714C06D897E898F89988D0E94410094
:101C0000DC01CB019C8B8B8B8B899C89988B8F877C
:101C10008F8598890197F1F7988B8F8782E062E032
:101C200040E00E948E0680E090E0A0E8BFE38B8752
:101C30009C87AD87BE876B857C858D859E8520E0E2
:101C400030E04AE753E40E941702DC01CB018F83A6
:101C50009887A987BA876F81788589859A8520E0DA
:101C600030E040E85FE30E94710388232CF481E0B8
:101C700090E09E838D833FC06F81788589859A85AA
:101C800020E03FEF4FE757E40E94110318164CF590
:101C90006B857C858D859E8520E030E040E251E4B7
:101CA0000E941702DC01CB01BC01CD010E94410062
:101CB000DC01CB019E838D830FC089E190E09C8382
:101CC0008B838B819C810197F1F79C838B838D8122
:101CD0009E8101979E838D838D819E81009769F7F8
:101CE00014C06F81788589859A850E944100DC0146
:101CF000CB019E838D838D819E819A838983898187
:101D00009A810197F1F79A8389836D960FB6F894BB
:101D1000DEBF0FBECDBFCF91DF910895DF93CF938C
:101D200000D00F92CDB7DEB79B838A8319820EC095
:101D30008981282F30E08A819B81FC01E20FF31F0B
:101D400080810E947E0D89818F5F89838981282F00
:101D500030E08A819B81FC01E20FF31F80818823A0
:101D600039F70F900F900F90CF91DF910895DF9387
:101D7000CF93CDB7DEB781E00E946E0CCF91DF919B
:101D80000895DF93CF9300D0CDB7DEB789836A8300
:101D900089816A8141E00E949B050F900F90CF914D
:101DA000DF910895DF93CF9300D0CDB7DEB789835D
:101DB0006A8389816A8141E00E948E060F900F90AC
:101DC000CF91DF910895DF93CF9300D0CDB7DEB7E9
:101DD00089836A8389816A8140E00E948E060F9020
:101DE0000F90CF91DF910895DF93CF9300D0CDB7BF
:101DF000DEB789836A8389816A810E9481070F9097
:101E00000F90CF91DF910895DF93CF93CDB7DEB7D9
:101E100065970FB6F894DEBF0FBECDBF83E00E947A
:101E20000E0A0E94740A80E690E00E948E0E83E003
:101E30000E94200A8D8B8D89813321F48D890E9427
:101E40007E0DF5CF8D89823391F78D890E947E0DAD
:101E500080E090E0AAEFB4E48B879C87AD87BE87D3
:101E60006B857C858D859E8520E030E04AE753E4D4
:101E70000E941702DC01CB018F839887A987BA875C
:101E80006F81788589859A8520E030E040E85FE3BE
:101E90000E94710388232CF481E090E09E838D835F
:101EA0003FC06F81788589859A8520E03FEF4FE7B5
:101EB00057E40E94110318164CF56B857C858D85BF
:101EC0009E8520E030E040E251E40E941702DC01F0
:101ED000CB01BC01CD010E944100DC01CB019E83FE
:101EE0008D830FC089E190E09C838B838B819C81E3
:101EF0000197F1F79C838B838D819E8101979E834F
:101F00008D838D819E81009769F714C06F817885DC
:101F100089859A850E944100DC01CB019E838D83D7
:101F20008D819E819A83898389819A810197F1F7B6
:101F30009A8389830E94B70E80E790E00E948E0EFC
:101F400017C083E00E94200A8D8B8D89803380F03A
:101F50008D898A3368F48D890E947E0D80E790E038
:101F600060E570E00E94BD098DE790E00E948E0E52
:101F70008D898D3331F75BCF2F923F924F925F92D5
:101F80006F927F928F929F92AF92BF92CF92DF9289
:101F9000EF92FF920F931F93CF93DF93CDB7DEB7EE
:101FA000CA1BDB0B0FB6F894DEBF0FBECDBF099482
:101FB0002A88398848885F846E847D848C849B84D9
:101FC000AA84B984C884DF80EE80FD800C811B81E7
:101FD000AA81B981CE0FD11D0FB6F894DEBF0FBE16
:0A1FE000CDBFED010895F894FFCF86
:101FEA00315F4C6F67696E2F325F4E65773A20001A
:101FFA0020456E74657220506173732000496E69C2
:10200A007469616C697A6564000000000000000070
:10201A00003738392F3435362A3132332D4E303D98
:02202A002B0089
:00000001FF
